:040000000201BB320C
:01000B0032C2
:0100130032BA
:01001B0032B2
:0100230032AA
:01002B0032A2
:0300330002033491
:01003B003292
:01004300328A
:01004B003282
:01005300327A
:01005B003272
:01006300326A
:03006B0002033756
:03007300020AB0CE
:03007B00020AC6B0
:0300830002037FF6
:03008B0002034F1E
:03009300020367FE
:03009B00020AC78F
:0300A300020AC886
:0300AB00020AC97D
:0300B300020ACA74
:0300BB00020ACB6B
:0300C300020ACC62
:0300CB00020B1411
:0300D300020B1508
:0300DB00020B16FF
:0300E300020B17F6
:0300EB00020B18ED
:0300F300020B19E4
:0300FB00020B1ADB
:03010300020B1BD1
:03010B00020B1CC8
:03011300020B1DBF
:03011B00020B1EB6
:03012300020B1FAD
:03012B00020B20A4
:03013300020B219B
:03013B00020B2292
:03014300020B2389
:03014B00020B2480
:03015300020B2577
:03015B00020B266E
:03016300020B2765
:03016B00020B285C
:03017300020B2953
:03017B00020B2A4A
:03018300020B2B41
:03018B00020B2C38
:03019300020B2D2F
:03019B00020B2E26
:0301A300020B2F1D
:0301AB00020B3014
:0301B300020B310B
:08021400C200C201C202C203D4
:030231000201B611
:0501B60012023480FE7E
:1002340090E600E0FA74E75A90E6004410F0E50016
:10024400D2E890E668E04408F090E65CE04401F00F
:1002540090E65CE04410F090E65CE04420F090E628
:100264005CE04408F0D2DD120397D2AF90E680E060
:10027400FA20E11590E680E0440AF09005DC1213C0
:100284005E90E680E0FA54F7F01000028003120B4F
:10029400681001028006758201120E591002028054
:1002A40006758200120E5910030302032E90E68293
:1002B400E0FA44C0F090E6817401F0438701000045
:1002C4000000000000E50F702690E682E0FA30E6B8
:1002D4000B90E682E0FA30E0030202B190E682E09D
:1002E400FA30E70B90E682E0FA30E1030202B190C3
:1002F400E682E0FA30E60890E682E0FA20E0109028
:10030400E682E0FA30E72390E682E0FA30E11B90DF
:10031400000512135E90E680E04401F090000F1295
:10032400135E90E680E0FA54FEF012041E02028D81
:10033400C2DC32C0E0C082C083D2005391EF90E6A9
:100344005D7401F0D083D082D0E032C0E0C082C0BE
:1003540083D2025391EF90E65D7410F0D083D08283
:10036400D0E032C0E0C082C083D2015391EF90E666
:100374005D7420F0D083D082D0E032C0E0C082C06F
:1003840083D2035391EF90E65D7408F0D083D0825A
:03039400D0E03284
:03021C0075090061
:1003970090E61BE4F090E61AF090E619F090E61864
:1003A700F00000000090E65CE0FA30E50643B58017
:1003B70043B080900BB812135E90E601E0FA444018
:1003C700F00000000090E610E0FA547FF000000013
:1003D7000090E611E0FA547FF00000000090E61369
:1003E700E0FA547FF00000000090E614E0FA547F32
:1003F700F00000000090E615E0FA547FF0000000DE
:100407000090E61274E0F090E65CE04402F0E4F558
:100417000AF50B750F002290E680E0FA20E7030249
:10042700053D7406B50900500122E509250925098E
:1004370090043B730204500204E20204930204E1B5
:100447000204E20204E10204EFE5AA30E10122AA74
:100457000A7B0090F000EAF0AA0B90F001EAF09016
:10046700E685E090F002F090E684E090F003F090EB
:10047700E686E0FA90F004F090E6907402F090E6D9
:1004870091E4F0050AE4B50A02050B22E5AA20E18A
:100497003CAA0A7B0090F000EAF0AA0B90F001EA70
:1004A700F090E685E090F002F090E684E090F003AB
:1004B700F090E686E0FA90F004F090E6907402F08F
:1004C70090E691E4F0050AE4B50A02050BE5AA30C7
:1004D700E4012290E6997480F02222E5AA30E00137
:1004E7002290E6917480F022E5AA20E13CAA0A7BDB
:1004F7000090F000EAF0AA0B90F001EAF090E68590
:10050700E090F002F090E684E090F003F090E68649
:10051700E0FA90F004F090E6907404F090E691E42D
:10052700F0050AE4B50A02050BE5AA30E4012290BA
:10053700E6997480F0227403B50900500122E50999
:100547002509250990054F7302055B02059E0205E3
:10055700AA0205EDE5AA30E10122AA0A7B0090F084
:1005670000EAF0AA0B90F001EAF090E685E090F03F
:1005770002F090E684E090F003F090E686E0FA90CF
:10058700F004F090E690E4F090E6917440F0050AEC
:10059700E4B50A5D050B22E5AA20E05590E69174C3
:1005A70080F022E5AA20E149AA0A7B0090F000EA40
:1005B700F0AA0B90F001EAF090E685E090F002F0E7
:1005C70090E684E090F003F090E686E0FA90F0047D
:1005D700F090E6907403F090E69174FFF0050AE45A
:1005E700B50A0E050B22E5AA20E00690E691748075
:1005F700F022858208758201228508822275820091
:1006070022AA14AB15AC168A828B838CF0E50912EB
:10061700134575820122850C0990E680E0FA20E7F0
:10062700030209177406B509005003020A8AE5098F
:100637002509250990063F730206540206C30207DF
:10064700300207B102083702086E0208B890E612B6
:1006570074E0F00000000090E610E0FA547FF0002C
:1006670000000090E611E0FA547FF00000000090CF
:10067700E613E0FA547FF00000000090E614E0FA79
:10068700547FF00000000090E615E0FA547FF00078
:1006970000000090E6047480F00000000090E6047B
:1006A7007402F00000000090E604E4F0000000008F
:1006B70090E6837412F07432F0020A8A90E612749C
:1006C700A0F00000000090E610E0FA547FF0000070
:1006D700000090E611E0FA547FF00000000090E679
:1006E70013E0FA547FF00000000090E614E0FA549B
:1006F7007FF00000000090E615E0FA547FF000005C
:10070700000090E6917480F00000000090E691747C
:1007170080F00000000090E6917480F00000000077
:1007270090E6917480F0020A8A90E61274E2F00073
:1007370000000090E61474A2F00000000090E6109C
:10074700E0FA547FF00000000090E611E0FA547FD1
:10075700F00000000090E613E0FA547FF00000007C
:100767000090E615E0FA547FF00000000090E604E0
:100777007480F00000000090E6047402F0000000AE
:100787000090E604E4F00000000090E6837412F0A5
:100797007432F090E6997480F00000000090E699BA
:1007A7007480F000000000020A8A0000000090E652
:1007B7001274D8F00000000090E6207404F00000E6
:1007C700000090E621E4F00000000090E618740CA9
:1007D700F00000000090E615E4F090E614F090E6D3
:1007E70013F090E611F090E610E4F000000000909E
:1007F700E6047480F00000000090E6047402F00044
:1008070000000090E604E4F00000000090E61BE41E
:10081700F090E61AF090E619F00000000090E6016B
:100827007443F00000000090E6407403F0020A8A67
:1008370090E615E4F090E614F090E613F090E611D8
:10084700F090E610E4F00000000090E6127498F0D3
:100857000000000090E6917480F00000000090E630
:10086700917480F0020A8A90E61274D8F0000000B2
:100877000090E615E4F090E614F090E613F090E6A9
:1008870011F090E610E4F00000000090E604748098
:10089700F00000000090E6047402F00000000090F1
:1008A700E604E4F00000000090E6407401F0020A5C
:1008B7008A90E61274DAF00000000090E614749A49
:1008C700F00000000090E615E4F090E613F090E6E3
:1008D70011F090E610F00000000090E6047480F03C
:1008E7000000000090E6047402F00000000090E6AB
:1008F70004E4F00000000090E6407401F090E699EF
:100907007480F00000000090E6997480F0020A8A73
:100917007403B509005003020A8AE5092509250968
:1009270090092B730209370209A6020A13020A5615
:1009370090E61274E0F00000000090E610E0FA5430
:100947007FF00000000090E611E0FA547FF000000D
:10095700000090E613E0FA547FF00000000090E6F4
:1009670014E0FA547FF00000000090E615E0FA5416
:100977007FF00000000090E6047480F000000000A3
:1009870090E6047402F00000000090E604E4F00032
:1009970000000090E6837412F07432F0020A8A9025
:1009A700E61274A0F00000000090E610E0FA547F11
:1009B700F00000000090E611E0FA547FF00000001C
:1009C7000090E613E0FA547FF00000000090E61470
:1009D700E0FA547FF00000000090E615E0FA547F3B
:1009E700F00000000090E6917480F0000000009095
:1009F700E6917480F00000000090E6917480F000AA
:100A070000000090E6917480F0020A8A90E6127462
:100A1700D8F00000000090E615E4F090E614F0909E
:100A2700E613F090E611F090E610E4F00000000005
:100A370090E6047480F00000000090E6047402F071
:100A47000000000090E604E4F0000000008034900D
:100A5700E615E4F090E614F090E613F090E611F056
:100A670090E610E4F00000000090E6127498F000A1
:100A770000000090E6917480F00000000090E6917D
:100A87007480F0E5092401FAE43432FB8A398B3AA1
:100A9700753B00753501753600753701753800757A
:100AA700822112124675820122C0E0C082C08353A0
:100AB70091EF90E65D7402F0D083D082D0E03232BD
:100AC7003232323232C0E0C082C083C0D075D0002B
:100AD7007401B5090280157402B50902801B7404FC
:100AE700B5090280077406B5091A800DE5AA20E04A
:100AF7001390E6917480F0800BE5AA20E40690E657
:100B0700997480F0D0D0D083D082D0E032323232A4
:100B170032323232323232323232323232323232AE
:0B0B270032323232323232323232329D
:1013D400C0F9A4B0999282F880988883C6A1868EB9
:102E000012010002FFFFFF40B404100400000002A2
:102E100000010A060002FFFFFF40010009028700CF
:102E200001010080FA0904000001FFFFFF0007050F
:102E300082020002000904000101FFFFFF000705F4
:102E400002020002000904000202FFFFFF00070562
:102E500082020002000705060200020009040003C6
:102E600001FFFFFF000705820100140109040004AF
:102E700001FFFFFF0007050201001401090400051E
:102E800001FFFFFF0007058201000401090400069D
:102E900002FFFFFF0007058201000401070506018C
:032EA0000004012A
:102EA4000902490001010080FA0904000001FF0041
:102EB4000000070582024000010904000101FF002F
:102EC4000000070502024000010904000201FF009E
:102ED400000007058201FF03010904000301FF004C
:092EE400000007050201FF0301D3
:102EEE0004030904100343007900700072006500AA
:102EFE00730073001403430079002D0073007400F7
:102F0E007200650061006D001003420075006C00D8
:0A2F1E006B002D0049004E0000007A
:0601EA00E478FFF6D8FDE9
:1001C8007910E94400601B7A019013D47801759284
:1001D80032E493F2A308B800020592D9F4DAF27572
:0201E80092FF84
:10021F00750E00750F007510A475112E75121C75D3
:02022F00132E8C
:100B320090E684E0FB7A0090E685E07D004202EDDB
:100B4200420374142AFAE43BFB8A0490E740ECF077
:100B52008B0290E741EAF090E68AE4F090E68B742B
:100B620002F07582012290E6B9E0FA740CB5020037
:100B72005003020C80EA2A2A900B7E73020BB70202
:100B82000BCC020C80020BE1020C80020C80020BE7
:100B9200F6020C80020BFC020C14020C2E020C62F8
:100BA200120B32E5826003020C9590E6A0E0FA4453
:100BB20001F0020C95120CF7E5826003020C95908D
:100BC200E6A0E0FA4401F0020C95120D83E5826082
:100BD20003020C9590E6A0E0FA4401F0020C951293
:100BE2000DD1E5826003020C9590E6A0E0FA440183
:100BF200F0020C95120E84020C95120600AA829045
:100C0200E740EAF090E68AE4F090E68B7401F002A5
:100C12000C9590E6BAE0F5821205F9E582600302CE
:100C22000C9590E6A0E0FA4401F0806790E6BCE003
:100C3200FA75140D7515007516408A82120608E5BC
:100C420082700A90E6A0E0FA4401F0804690E74004
:100C5200E50DF090E68AE4F090E68B7401F08033C3
:100C620090E6BCE0FA90E6BAE0F50C8A8212061D24
:100C7200E582701F90E6A0E0FA4401F0801590E64C
:100C8200B9E0F582120604E582700890E6A0E0FA67
:100C92004401F090E6A0E04480F022AA82747F5AD8
:100CA200FB7408B503004049EB2B2B900CB1730287
:100CB2000CCC020CD0020CE3020CF3020CE7020C87
:100CC200F3020CEB020CF3020CEF90E6A022EA30E6
:100CD200E7067AA27BE680047AA17BE68A828B838E
:100CE2002290E6A32290E6A42290E6A52290E6A610
:100CF200229000002290E6B8E0FABA80028022BA7E
:100D020081028008BA82028037020D7B90E740E4BC
:100D1200F090E741F090E68AF090E68B7402F08062
:100D22005CE50F25E0FAE50E420290E740EAF0901A
:100D3200E741E4F090E68AF090E68B7402F0803DA1
:100D420090E6BCE0F582120C9DAA82AB83EA4B705E
:100D520003F582228A828B83E0FA30E0047A0180F2
:100D6200027A0090E740EAF090E741E4F090E68AE8
:100D7200F090E68B7402F080047582002275820185
:100D82002290E6B8E0FA6005BA0237801190E6BA1E
:100D9200E0FABA0105750F0080317582002290E6F3
:100DA200BAE0701A90E6BCE0F582120C9DAA82AB02
:100DB20083E0FC5304FE8A828B83ECF0800D758203
:100DC200002290E6B9E0F5820206047582012290C3
:100DD200E6B8E0FA6008BA0202801F020E4C90E602
:100DE200BAE0FABA0203020E5590E6BAE0FABA0184
:100DF20005750F01805D7582002290E6BAE07046AB
:100E020090E6BCE0F582120C9DAA82AB83EA4B709D
:100E120003F582228A828B83E0FC4304018A828B5F
:100E220083ECF090E6BCE0FA53020F90E6BCE0548B
:100E320080C423541FFB90E683EB2AF090E683E004
:100E4200FA4420F0800D7582002290E6B9E0F58226
:100E520002060475820122AA82D20410AF02C204E1
:100E6200EA600E75101C75112E7512A475132E8072
:100E72000C7510A475112E75121C75132EA20492F6
:100E8200AF2290E6BBE0FABA01028019BA020280F0
:100E920027BA03028030BA0603020F2DBA070302F3
:100EA2000F40020F4E7A007B2E90E6B3EBF07A00F1
:100EB2007B2E90E6B4EAF02290E6B3E511F0AA1098
:100EC20090E6B4EAF0227AEE7B2E7C8090E6BAE0DD
:100ED200FD7E008E070EEDB5070280378A828B8376
:100EE2008CF01213B42AFAE43BFB74012AFFE43BB0
:100EF200F88C018F82888389F01213B4FFBF03023A
:100F020080067A007B007C00EA4B4C6006EDB50659
:100F12000050C0EA4B4C600B90E6B3EBF090E6B4A5
:100F2200EAF02290E6A0E04401F0227A127B2E90B1
:100F3200E6B3EBF07A127B2E90E6B4EAF02290E66A
:100F4200B3E513F0AA1290E6B4EAF02290E6A0E02C
:100F52004401F022AA82E5262521F52BE527352238
:100F6200F52C903200E4F0EA2AFA752D0290320054
:100F7200E0FE60047582002290E678E04480F09002
:100F8200E678E0FE30E20C90000AC00212135ED056
:100F92000280DA90E679EAF090E678E0FE20E00757
:100FA200903200E0FE60F1903200E0FE6004758253
:100FB200002290E678E0FE20E2B390E678E0FE20A0
:100FC200E13690E678E0FE4440F090E678E0FE30CC
:100FD200E607903200E0FE60F1903200E0FE60042D
:100FE20075820022D52D047582002290000AC0026B
:100FF20012135ED002020F6F7E007F00C3EE952BAC
:10100200EF952C400302109BC3EE9521EF952250E1
:1010120016EE2523F8EF3524F9AD25888289838DD4
:10102200F01213B4FD801DEEC39521F8EF9522F95D
:10103200E82528F8E93529F9AB2A888289838BF0DB
:101042001213B4FD90E679EDF00EBE00010F90E6AA
:1010520078E0FB20E007903200E0FB60F190320084
:10106200E0FB60047582002290E678E0FB30E20348
:10107200020F6F90E678E0FB30E103020FFE90E68C
:1010820078E0FA4440F090E678E0FA30E6079032F1
:1010920000E0FA60F17582002290E678E0FA4440BE
:1010A200F090E678E0FA30E607903200E0FA60F17C
:1010B200903200E0FA60047582002275820122AA51
:1010C20082903200E4F0EA2AFA4302017401B52E5A
:1010D20008E4B52F0474018001E4FB903200E0FCC7
:1010E2006004758200227C007D0090E678E04480F6
:1010F200F090E678E0FE30E21090000AC002C003F1
:1011020012135ED003D00280D290E679EAF090E624
:1011120078E0FE20E007903200E0FE60F1903200BD
:10112200E0FE60047582002290E678E0FE20E2ABE9
:1011320090E678E0FE20E11B90E678E0FE4440F085
:1011420090E678E0FE30E607903200E0FE60F1754E
:10115200820022EB600890E678E0FE4420F090E600
:1011620079E0E4F533F53474012533F8E43534F9E4
:10117200C3E8952EE9952F506990E678E0F820E0D3
:1011820007903200E0F860F1903200E0F8600475F8
:1011920082002290E678E0F830E2030210DD740269
:1011A2002533F8E43534F9E8B52E0CE9B52F08906B
:1011B200E678E0F84420F0A833A9340533E4B533E7
:1011C200020534AC33AD34E82530F8E93531F9AEF7
:1011D2003290E679E0FF888289838EF0121345020D
:1011E200116990E678E0FE20E007903200E0FE60B0
:1011F200F1903200E0FE60047582002290E678E011
:10120200FE30E2030210DD90E678E04440F0EC2587
:1012120030FCED3531FDAA3290E679E0FB8C828D0F
:10122200838AF012134590E678E0FA30E6079032AE
:1012320000E0FA60F1903200E0FA60047582002268
:101242007582012285823CE4F540F541AD35AE362A
:10125200C3E5409537E541953840030212DA7F0035
:1012620090E678E0FA30E4067F018E028A3D8F0232
:101272000FEA243DF88D02A6028F020FEA243DF800
:10128200AA40AB410540E4B540020541EA2539FADE
:10129200EB353AFBAC3B8A828B838CF01213B4F6AB
:1012A2008F2175220075233D752400752540E4F5D4
:1012B20026F527E4F528F529752A00853C82C00524
:1012C200C006120F56E582D006D0057003F58222C1
:1012D2000DBD00010E02125275820122AA827B000C
:1012E20090E678E0FC30E4067B01AC438C498B0449
:1012F2000BEC2449F8AC42A6048B2175220075231D
:1013020049752400752540E4F526F527E4F528F50E
:1013120029752A008A82C002120F56E582D0027015
:1013220003F5822285442E85452F85463085473137
:101332008548328A821210C1E5827003F5822275D5
:1013420082012220F71030F6118883A88220F50747
:0C135200F6A88375830022F280F7F022D9
:0300430002300088
:1030000002033700020AB000020AC60002037F0072
:1030100002034F0002036700020AC700020B2300ED
:10302000020AC800020AC900020ACA00020ACB004A
:10303000020ACC00020B1400020B1500020B160052
:10304000020B1700020B2300020B1800020B1900E1
:10305000020B1A00020B1B00020B1C00020B1D00CE
:10306000020B1E00020B2300020B2300020B2300A5
:10307000020B1F00020B2000020B2100020B22009A
:10308000020B2400020B2500020B2600020B270076
:10309000020B2800020B2900020B2A00020B2B0056
:1030A000020B2C00020B2D00020B2E00020B2F0036
:0830B000020B3000020B31009D
:1001F0007800E84400600A7900759232E4F309D887
:10020000FC7801E84400600C7901903200E4F0A32E
:04021000D8FCD9FA43
:10135E00AA82AB8390E600E05418C423541FFCB459
:10136E000100E433FC60067CB17D00801C90E60039
:10137E00E05418C423541FFEBE01067E617F018017
:10138E00047EC27F028E048F058C148D1515147485
:10139E00FFB514021515E514451570F11ABAFF01C3
:0613AE001BEA4B70E42273
:0D01BB0075814A1213D0E58260030201B67F
:1013B40020F71430F6148883A88220F507E6A88362
:1013C40075830022E280F7E49322E02275820022F2
:00000001FF
